{
    "contractName": "LegendaryCarWash",
    "abi": [
        {
            "inputs": [],
            "stateMutability": "nonpayable",
            "type": "constructor"
        },
        {
            "anonymous": false,
            "inputs": [
                {
                    "indexed": false,
                    "internalType": "uint256",
                    "name": "amount",
                    "type": "uint256"
                },
                {
                    "indexed": false,
                    "internalType": "address",
                    "name": "wallet",
                    "type": "address"
                },
                {
                    "indexed": false,
                    "internalType": "address",
                    "name": "ref",
                    "type": "address"
                }
            ],
            "name": "add_funds_event",
            "type": "event"
        },
        {
            "anonymous": false,
            "inputs": [
                {
                    "indexed": false,
                    "internalType": "uint256",
                    "name": "randomNumber",
                    "type": "uint256"
                },
                {
                    "indexed": false,
                    "internalType": "bool",
                    "name": "rob",
                    "type": "bool"
                }
            ],
            "name": "random_security_event",
            "type": "event"
        },
        {
            "anonymous": false,
            "inputs": [
                {
                    "indexed": false,
                    "internalType": "uint256",
                    "name": "carwashId",
                    "type": "uint256"
                },
                {
                    "indexed": false,
                    "internalType": "address",
                    "name": "wallet",
                    "type": "address"
                }
            ],
            "name": "upgrade_carWash_event",
            "type": "event"
        },
        {
            "anonymous": false,
            "inputs": [
                {
                    "indexed": false,
                    "internalType": "uint256",
                    "name": "amount",
                    "type": "uint256"
                },
                {
                    "indexed": false,
                    "internalType": "address",
                    "name": "wallet",
                    "type": "address"
                }
            ],
            "name": "withdraw_event",
            "type": "event"
        },
        {
            "inputs": [
                {
                    "internalType": "address",
                    "name": "_ref",
                    "type": "address"
                }
            ],
            "name": "addFunds",
            "outputs": [],
            "stateMutability": "payable",
            "type": "function"
        },
        {
            "inputs": [
                {
                    "internalType": "address",
                    "name": "_adr",
                    "type": "address"
                }
            ],
            "name": "buySecurity",
            "outputs": [],
            "stateMutability": "nonpayable",
            "type": "function"
        },
        {
            "inputs": [
                {
                    "internalType": "address",
                    "name": "",
                    "type": "address"
                }
            ],
            "name": "carwashMap",
            "outputs": [
                {
                    "internalType": "uint256",
                    "name": "balance",
                    "type": "uint256"
                },
                {
                    "internalType": "uint256",
                    "name": "harvestDay",
                    "type": "uint256"
                },
                {
                    "internalType": "address",
                    "name": "referred",
                    "type": "address"
                },
                {
                    "internalType": "uint256",
                    "name": "refsNumber",
                    "type": "uint256"
                },
                {
                    "internalType": "uint256",
                    "name": "timestamp",
                    "type": "uint256"
                },
                {
                    "internalType": "uint256",
                    "name": "hrs",
                    "type": "uint256"
                },
                {
                    "internalType": "uint256",
                    "name": "harvest",
                    "type": "uint256"
                },
                {
                    "internalType": "bool",
                    "name": "security",
                    "type": "bool"
                }
            ],
            "stateMutability": "view",
            "type": "function"
        },
        {
            "inputs": [
                {
                    "internalType": "address",
                    "name": "_adr",
                    "type": "address"
                }
            ],
            "name": "getCarwash",
            "outputs": [
                {
                    "internalType": "uint8[8]",
                    "name": "",
                    "type": "uint8[8]"
                }
            ],
            "stateMutability": "view",
            "type": "function"
        },
        {
            "inputs": [],
            "name": "getStatus",
            "outputs": [
                {
                    "internalType": "bool",
                    "name": "",
                    "type": "bool"
                }
            ],
            "stateMutability": "view",
            "type": "function"
        },
        {
            "inputs": [
                {
                    "internalType": "bool",
                    "name": "_initializeContract",
                    "type": "bool"
                }
            ],
            "name": "initialized",
            "outputs": [],
            "stateMutability": "nonpayable",
            "type": "function"
        },
        {
            "inputs": [
                {
                    "internalType": "address",
                    "name": "_adr",
                    "type": "address"
                }
            ],
            "name": "randomSecurity",
            "outputs": [
                {
                    "internalType": "bool",
                    "name": "",
                    "type": "bool"
                }
            ],
            "stateMutability": "nonpayable",
            "type": "function"
        },
        {
            "inputs": [],
            "name": "recover",
            "outputs": [],
            "stateMutability": "nonpayable",
            "type": "function"
        },
        {
            "inputs": [
                {
                    "internalType": "uint256",
                    "name": "_carwashId",
                    "type": "uint256"
                }
            ],
            "name": "upgradeCarWash",
            "outputs": [],
            "stateMutability": "nonpayable",
            "type": "function"
        },
        {
            "inputs": [],
            "name": "withdraw",
            "outputs": [],
            "stateMutability": "nonpayable",
            "type": "function"
        }
    ],
    "bytecode": "60806040526004600155600360025534801561001a57600080fd5b50600080546001600160a01b031916331790556003805460ff19169055611721806100466000396000f3fe6080604052600436106100915760003560e01c80634e69d560116100595780634e69d56014610146578063c4a0bb071461015e578063ce7460241461017e578063e2172ab214610193578063ed95685f1461024b57600080fd5b80631240382c14610096578063203a1dca146100b85780632a4a1a9b146100ee5780633ccfd60b14610101578063491cdd4814610116575b600080fd5b3480156100a257600080fd5b506100b66100b136600461152b565b61026b565b005b3480156100c457600080fd5b506100d86100d336600461152b565b610550565b6040516100e5919061155b565b60405180910390f35b6100b66100fc36600461152b565b6105c1565b34801561010d57600080fd5b506100b66107c5565b34801561012257600080fd5b5061013661013136600461152b565b610895565b60405190151581526020016100e5565b34801561015257600080fd5b5060035460ff16610136565b34801561016a57600080fd5b506100b6610179366004611590565b610989565b34801561018a57600080fd5b506100b6610a1c565b34801561019f57600080fd5b506102006101ae36600461152b565b600760208190526000918252604090912080546001820154600283015460038401546004850154600586015460068701549690970154949693956001600160a01b039093169491939092909160ff1688565b6040805198895260208901979097526001600160a01b03909516958701959095526060860192909252608085015260a084015260c0830191909152151560e0820152610100016100e5565b34801561025757600080fd5b506100b66102663660046115b2565b610a9b565b60035460ff166102965760405162461bcd60e51b815260040161028d906115cb565b60405180910390fd5b6001600160a01b03811633146102ab57600080fd5b6001600160a01b0381166000908152600760205260409020600401546103245760405162461bcd60e51b815260206004820152602860248201527f546865207573657220686173206e6f742070757263686173656420616e79206360448201526730b9103bb0b9b41760c11b606482015260840161028d565b6001600160a01b038116600090815260076020526040902060050154156103a85760405162461bcd60e51b815260206004820152603260248201527f596f752063616e206f6e6c792068697265207365637572697479207768656e206044820152713cb7ba9033b7903a379031b7b63632b1ba1760711b606482015260840161028d565b6001600160a01b0381166000908152600760208190526040909120015460ff161561042d5760405162461bcd60e51b815260206004820152602f60248201527f596f7520616c7265616479206861766520736563757269747920636f6e74726160448201526e31ba32b2103337b9103a37b230bc9760891b606482015260840161028d565b6001600160a01b03811660009081526007602052604081206001015461045f90610458906028610cac565b6064610cc1565b6001600160a01b0383166000908152600760205260409020549091508111156104fa5760405162461bcd60e51b815260206004820152604160248201527f596f7520646f6e2774206861766520656e6f756768206d6f6e657920746f207060448201527f617920666f7220736563757269747920746f6461792e204164642066756e64736064820152601760f91b608482015260a40161028d565b6001600160a01b03821660009081526007602052604081208054839290610522908490611622565b9091555050506001600160a01b0316600090815260076020819052604090912001805460ff19166001179055565b61055861150c565b6001600160a01b038216600090815260076020526040808220815161010081019283905292600891820192908390855b825461010083900a900460ff16815260206001928301818104948501949093039092029101808411610588575094979650505050505050565b60035460ff166105e35760405162461bcd60e51b815260040161028d906115cb565b3360009081526007602052604081206004015490036106a6576001600160a01b038116600090815260076020526040902060040154156106235780610630565b6000546001600160a01b03165b6001600160a01b038116600090815260076020526040812060030180549293509061065a83611635565b90915550503360009081526007602052604081206002810180546001600160a01b0319166001600160a01b0385161790554260049091015560058054916106a083611635565b91905055505b34600660008282546106b8919061164e565b909155505033600090815260076020526040812080543492906106dc90849061164e565b9091555050336000908152600760205260409020600201546001600160a01b0316905061070834610ccd565b6001600160a01b0382166000908152600760205260408120805490919061073090849061164e565b90915550506000546001600160a01b03166108fc61074d34610cde565b6040518115909202916000818181858888f19350505050158015610775573d6000803e3d6000fd5b50604080513481523360208201526001600160a01b038316918101919091527f4d2edb13a801a2027a181d3034de6144ebf11c4086adfbe3a0dcc492fb569d01906060015b60405180910390a150565b60035460ff166107e75760405162461bcd60e51b815260040161028d906115cb565b336000818152600760205260409020549047906108fc838310610819573360009081526007602052604090205461081b565b825b6040518115909202916000818181858888f19350505050158015610843573d6000803e3d6000fd5b50336000818152600760209081526040808320929092558151858152908101929092527fea57a935889b59b9a1acd9fc26d938dcd2894d0753a42fccf54fba3f57eb1ac2910160405180910390a15050565b600080600090506000606442856040516020016108ce92919091825260601b6bffffffffffffffffffffffff1916602082015260340190565b6040516020818303038152906040528051906020012060001c6108f19190611677565b905060148111610942576040805182815260016020820181905293507fc3dfb604093352d18a9ffe60242101e7ddeaee833765f328aaa46d3c2bdf584e910160405180910390a15060019392505050565b6040805182815260006020820181905293507fc3dfb604093352d18a9ffe60242101e7ddeaee833765f328aaa46d3c2bdf584e910160405180910390a15060009392505050565b60005433906001600160a01b031681146109f75760405162461bcd60e51b815260206004820152602960248201527f4f6e6c7920746865206f776e65722063616e2065786563757465207468697320604482015268333ab731ba34b7b71760b91b606482015260840161028d565b8115610a0e576003805460ff191660011790555050565b6003805460ff191690555050565b60035460ff16610a3e5760405162461bcd60e51b815260040161028d906115cb565b610a4733610cef565b33600090815260076020526040812060068101548154909290610a6b90849061164e565b9091555050336000908152600760208190526040822060058101839055600681019290925501805460ff19169055565b60035460ff16610abd5760405162461bcd60e51b815260040161028d906115cb565b60088110610b0d5760405162461bcd60e51b815260206004820152601d60248201527f382063617220776173686573206d6178696d756d207065722075736572000000604482015260640161028d565b610b1633610cef565b33600090815260076020526040902060089081019082908110610b3b57610b3b61168b565b6020918282040191900681819054906101000a900460ff1680929190610b60906116a1565b91906101000a81548160ff021916908360ff16021790555050610bd18160076000336001600160a01b03166001600160a01b031681526020019081526020016000206008018360088110610bb657610bb661168b565b602081049091015460ff601f9092166101000a900416610ef4565b3360009081526007602052604081208054909190610bf0908490611622565b9091555050336000908152600760205260409020610c3b90829060089081019082908110610c2057610c2061168b565b602081049091015460ff601f9092166101000a90041661123a565b3360009081526007602052604081206001018054909190610c5d90849061164e565b909155505060048054906000610c7283611635565b9091555050604080518281523360208201527f5a2c82eb5b692dadfac85c8513af21897f714aa6dda062cdecd3c331f323772491016107ba565b6000610cb882846116c0565b90505b92915050565b6000610cb882846116d7565b6000610cbb61045883600254610cac565b6000610cbb61045883600154610cac565b6001600160a01b038116600090815260076020526040902060040154610d405760405162461bcd60e51b8152602060048201526006602482015265139d5b1b195960d21b604482015260640161028d565b6001600160a01b03811660009081526007602052604090206001015415610ed4576001600160a01b038116600090815260076020526040812060040154610d8a90610e10906116d7565b610d96610e10426116d7565b610da09190611622565b6001600160a01b038316600090815260076020526040902060050154909150601890610dcd90839061164e565b1115610ed2576001600160a01b038216600090815260076020526040902060050154610dfa906018611622565b6001600160a01b038316600090815260076020526040902060010154909150610e2390826116c0565b6001600160a01b03831660009081526007602052604081206006018054909190610e4e90849061164e565b90915550506001600160a01b03821660009081526007602052604081206005018054839290610e7e90849061164e565b90915550506001600160a01b0382166000908152600760208190526040909120015460ff16610ed257610eb082610895565b15610ed2576001600160a01b0382166000908152600760205260408120600601555b505b6001600160a01b0316600090815260076020526040902042600490910155565b600081600103610f9d57604080516101008101825266470de4df820000815266d529ae9e860000602082015267027f7d0bdb9200009181019190915267077e772392b600006060820152670efcee47256c00006080820152671df9dc8e4ad8000060a0820152673bf3b91c95b0000060c08201526777e772392b60000060e08201528360088110610f8757610f8761168b565b602002015167ffffffffffffffff169050610cbb565b8160020361102f576040805161010081018252666379da05b60000815267012a6d8e11220000602082015267037f48aa3366000091810191909152670a7dd9fe9a32000060608201526714fbb3fd3464000060808201526729f767fa68c8000060a08201526753eecff4d190000060c082015267a7dd9fe9a320000060e08201528360088110610f8757610f8761168b565b816003036110c1576040805161010081018252667fe5cf2bea0000815267017fb16d83be0000602082015267047f14488b3a000091810191909152670d7d3cd9a1ae00006060820152671afa79b3435c000060808201526735f4f36686b8000060a0820152676be9e6cd0d70000060c082015267d7d3cd9a1ae0000060e08201528360088110610f8757610f8761168b565b8160040361116b576040805161010081018252669c51c4521e000081526701d4f54cf65a0000602082015267057edfe6e30e00009181019190915267107c9fb4a92a000060608201526720f93f695254000060808201526741f27ed2a4a8000060a08201526783e4fda54950000060c0820152680107c9fb4a92a0000060e082015283600881106111545761115461168b565b602002015168ffffffffffffffffff169050610cbb565b816005036111fe57604080516101008101825266b8bdb978520000815267022a392c68f60000602082015267067eab853ae200009181019190915267137c028fb0a6000060608201526726f8051f614c00006080820152674df00a3ec298000060a0820152679be0147d8530000060c0820152680137c028fb0a60000060e082015283600881106111545761115461168b565b60405162461bcd60e51b8152602060048201526011602482015270125b98dbdc9c9958dd081b195d995b1259607a1b604482015260640161028d565b6000816001036112cc57604080516101008101825266016bcc41e90000815266044364c5bb00006020820152660cca2e513100009181019190915267017fb16d83be000060608201526702ff62db077c000060808201526705fec5b60ef8000060a0820152670bfd8b6c1df0000060c0820152670265e8af3930000060e08201528360088110610f8757610f8761168b565b8160020361135c576040805161010081018252660221b262dd8000815266060a24181e400060208201526611c37937e080009181019190915267021875b3311580006060820152670430eb66622b00006080820152670865644b691c800060a08201526701ade0dbe1d2800060c082015267035b66c4b32ac00060e08201528360088110610f8757610f8761168b565b816003036113ec57604080516101008101825266027ca57357c00081526607d0e36a8180006020820152661717b72f0a4000918101919091526702b139f8de6d00006060820152670566017061a080006080820152670acc02e0c341000060a0820152670228726d1692c00060c0820152670450e4da2d25800060e08201528360088110610f8757610f8761168b565b8160040361147c5760408051610100810182526603328b944c4000815266093cafac6a80006020820152661c110215b9c0009181019190915267034d8bbd308b0000606082015267069789fbbc4f80006080820152670d2f13f7789f000060a08201526702a35ef15bcd400060c0820152670546bde2b79a800060e08201528360088110610f8757610f8761168b565b816005036111fe57604080516101008101825266038d7ea4c680008152660b036efecdc0006020820152662165400ce38000918101919091526703e65002dde2800060608201526707cca005bbc50000608082015267018ef8414846c00060a082015267031df082908d800060c082015267063c3bf83195400060e08201528360088110610f8757610f8761168b565b6040518061010001604052806008906020820280368337509192915050565b60006020828403121561153d57600080fd5b81356001600160a01b038116811461155457600080fd5b9392505050565b6101008101818360005b600881101561158757815160ff16835260209283019290910190600101611565565b50505092915050565b6000602082840312156115a257600080fd5b8135801515811461155457600080fd5b6000602082840312156115c457600080fd5b5035919050565b60208082526021908201527f54686520636f6e74726163742069732063757272656e746c79207061757365646040820152601760f91b606082015260800190565b634e487b7160e01b600052601160045260246000fd5b81810381811115610cbb57610cbb61160c565b6000600182016116475761164761160c565b5060010190565b80820180821115610cbb57610cbb61160c565b634e487b7160e01b600052601260045260246000fd5b60008261168657611686611661565b500690565b634e487b7160e01b600052603260045260246000fd5b600060ff821660ff81036116b7576116b761160c565b60010192915050565b8082028115828204841417610cbb57610cbb61160c565b6000826116e6576116e6611661565b50049056fea26469706673582212201940ed59fe38f3534b929b81070d7ed8feacf7ed5b7fb9db66b25e94a3b5bc0464736f6c63430008110033",
    "sourcePath": "d:/Spaar Games repositorios/CarWashContract/LegendaryCarWashContract.sol",
    "compiler": {
        "name": "solc",
        "version": "0.8.17+commit.8df45f5f"
    },
    "functionHashes": {
        "addFunds(address)": "2a4a1a9b",
        "buySecurity(address)": "1240382c",
        "carwashMap(address)": "e2172ab2",
        "getCarwash(address)": "203a1dca",
        "getStatus()": "4e69d560",
        "initialized(bool)": "c4a0bb07",
        "randomSecurity(address)": "491cdd48",
        "recover()": "ce746024",
        "upgradeCarWash(uint256)": "ed95685f",
        "withdraw()": "3ccfd60b"
    },
    "gasEstimates": {
        "creation": {
            "codeDepositCost": "1184200",
            "executionCost": "93899",
            "totalCost": "1278099"
        },
        "external": {
            "addFunds(address)": "infinite",
            "buySecurity(address)": "infinite",
            "carwashMap(address)": "17565",
            "getCarwash(address)": "infinite",
            "getStatus()": "2304",
            "initialized(bool)": "26670",
            "randomSecurity(address)": "2071",
            "recover()": "infinite",
            "upgradeCarWash(uint256)": "infinite",
            "withdraw()": "infinite"
        },
        "internal": {
            "carwashPrice(uint256,uint256)": "infinite",
            "checkLevels(address)": "infinite",
            "dataRecovery(address)": "infinite",
            "devFee(uint256)": "infinite",
            "harvestAmount(uint256,uint256)": "infinite",
            "refFee(uint256)": "infinite"
        }
    }
}